:100000000C94D6000C94FE000C94FE000C94820418
:100010000C9482040C9482040C94FE000C94FE0058
:100020000C94FE000C94FE000C94FE000C94FE0058
:100030000C94FE000C94FE000C94FE000C94FE0048
:100040000C9438040C94FE000C9406030C94E0020B
:100050000C94FE000C94FE000C94FE000C94FE0028
:100060000C94A7050C94FE0015071B072107270712
:100070002D073307390774087B0882088908900820
:10008000A7089708A7089E0846135513591352133B
:1000900059135913591359138D14591359135913CB
:1000A0004E1359134A1359135913891400000000B1
:1000B000240027002A0000000008000201000003BD
:1000C0000407000000000000000020636D006E6562
:1000D0007720737465704C656E6774683D0070615D
:1000E000757365007475726E526967687400747513
:1000F000726E4C65667400737465704261636B77F1
:100100006172640073746570466F72776172640027
:100110006C6F6164537465704C656E6774680073CE
:10012000617665537465704C656E677468007072B3
:100130006F6772616D207465726D696E617465645C
:1001400000737465702064656C617900636C65612F
:100150007220616C6C00636C65617200746F6F205B
:100160006D616E79206F726465727300000000002B
:10017000250028002B000000000023002600290095
:10018000040404040404040402020202020203033D
:100190000303030301020408102040800102040845
:1001A00010200102040810209414141011241FBE02
:1001B000CFEFD8E0DEBFCDBF24E0AEEFB1E001C0AD
:1001C0001D92A539B207E1F711E0A0E0B1E0E8E047
:1001D000F3E302C005900D92AE3FB107D9F710E0EE
:1001E000C5EDD0E004C02197FE010E94AD16C43DCC
:1001F000D107C9F70E941E100C9477190C940000C7
:10020000FC01918D828D981761F0828DDF01A80F1E
:10021000B11D5D968C91928D9F5F9F73928F90E040
:1002200008958FEF9FEF0895FC01918D828D9817AF
:1002300031F0828DE80FF11D858D90E008958FEFEC
:100240009FEF0895FC01918D228D892F90E0805CB5
:100250009F4F821B91098F739927089589E393E03B
:100260000E94220121E0892B09F420E0822F0895C9
:10027000FC01848DDF01A80FB11DA35ABF4F2C9143
:10028000848D90E001968F739927848FA689B78912
:100290002C93A089B1898C9180648C93938D848DEB
:1002A000981306C00288F389E02D80818F7D8083BA
:1002B0000895EF92FF920F931F93CF93DF93EC017A
:1002C00081E0888F9B8D8C8D981305C0E889F98912
:1002D000808185FD24C0F62E0B8D10E00F5F1F4F2F
:1002E0000F731127E02E8C8DE8120CC00FB607FC9F
:1002F000FACFE889F989808185FFF5CFCE010E9488
:100300003801F1CF8B8DFE01E80FF11DE35AFF4F4D
:10031000F0820B8FEA89FB898081806207C0EE89B9
:10032000FF896083E889F98980818064808381E026
:1003300090E0DF91CF911F910F91FF90EF90089582
:10034000CF93DF93EC01888D8823C9F0EA89FB897C
:10035000808185FD05C0A889B9898C9186FD0FC073
:100360000FB607FCF5CF808185FFF2CFA889B98948
:100370008C9185FFEDCFCE010E943801E7CFDF9150
:10038000CF91089580E090E0892B29F00E942E0102
:1003900081110C9400000895833081F028F481309D
:1003A00099F08230A1F008958730A9F08830B9F033
:1003B0008430D1F4809180008F7D03C080918000D3
:1003C0008F7780938000089584B58F7702C084B5BD
:1003D0008F7D84BD08958091B0008F7703C0809198
:1003E000B0008F7D8093B00008952091DA023091A3
:1003F000DB022817390771F49091D8028091D90255
:10040000981741F0E091D802F0E0E557FD4F808168
:1004100090E008958FEF9FEF089508951F93CF9375
:10042000DF93DC015C962D913C915D9721153105A0
:1004300039F481E090E013969C938E9312973DC01F
:100440005196ED91FC91529750969C915097892F1F
:1004500080951FB75E964C915E9741FB772770F9A8
:1004600041FD6095F8944081772311F0492B01C03C
:1004700048234083E9012197F1F748E0508160FF6C
:1004800002C0592B01C058235083E9012197F1F78D
:100490006695415099F7772321F0908189238083D5
:1004A00003C08081982B90831FBF5C968D919C9197
:1004B0005D970197F1F721E030E0C901DF91CF911D
:1004C0001F9108952091DA023091DB022817390735
:1004D00071F48091D9022091D80290E0805C9F4F06
:1004E000821B910960E470E00E949916089580E0F3
:1004F00090E008952091DA023091DB022817390745
:10050000B9F49091D8028091D902981789F0E091BE
:10051000D802F0E0E557FD4F80812091D80230E00D
:100520002F5F3F4F2F7333272093D80290E0089519
:100530008FEF9FEF089585ED8093BC008091BC0004
:1005400084FDFCCF1092DE020895089581E090E0D2
:100550003091E2022091E102321710F480E090E045
:1005600091958195910908958091E2029091E1021F
:10057000891730F48F5F8093E20280E090E0089565
:100580008FEF9FEF08958091E10290E02091E202C9
:10059000821B910908956115710579F0FB010190A5
:1005A0000020E9F73197AF01461B570BDC01ED91B5
:1005B000FC910280F381E02D099480E090E00895A1
:1005C0001F920F920FB60F9211242F933F934F93C8
:1005D0005F936F937F938F939F93AF93BF93EF93AB
:1005E000FF9389E393E00E943801FF91EF91BF915F
:1005F000AF919F918F917F916F915F914F913F91BB
:100600002F910F900FBE0F901F9018951F920F9271
:100610000FB60F9211242F938F939F93EF93FF9315
:10062000E0914903F0914A038081E0914F03F091FA
:10063000500382FD12C09081809152038F5F8F73AF
:1006400020915303821751F0E0915203F0E0E75CF0
:10065000FC4F958F8093520301C08081FF91EF91F1
:100660009F918F912F910F900FBE0F901F90189513
:10067000CF93DF93282F30E0F901EA54FF4F8491A4
:10068000F901EC56FE4FD491F901E058FE4FC491A8
:10069000CC2391F081110E94CC01EC2FF0E0EE0F01
:1006A000FF1FEA58FE4FA591B491EC91ED2381E034
:1006B00090E021F480E002C080E090E0DF91CF91F3
:1006C00008951F93CF93DF93282F30E0F901EA5468
:1006D000FF4F8491F901EC56FE4FD491F901E05897
:1006E000FE4FC491CC23C9F0162F81110E94CC017A
:1006F000EC2FF0E0EE0FFF1FE459FE4FA591B491EF
:100700008FB7F894111105C09C91ED2FE095E92366
:1007100002C0EC91ED2BEC938FBFDF91CF911F9135
:100720000895CF93DF9390E0FC01EC56FE4F2491A7
:10073000FC01E058FE4F8491882361F190E0880F1E
:10074000991FFC01E455FF4FC591D491FC01E45978
:10075000FE4FA591B491611109C09FB7F8948881AB
:10076000209582238883EC912E230BC0623061F4A4
:100770009FB7F8943881822F809583238883EC91EA
:100780002E2B2C939FBF06C08FB7F894E8812E2B99
:1007900028838FBFDF91CF9108953FB7F894809160
:1007A000D0029091D102A091D202B091D30226B58D
:1007B000A89B05C02F3F19F00196A11DB11D3FBF99
:1007C000BA2FA92F982F8827820F911DA11DB11D27
:1007D000BC01CD0142E0660F771F881F991F4A9523
:1007E000D1F708958F929F92AF92BF92CF92DF92EE
:1007F000EF92FF926B017C010E94CD034B015C01E3
:10080000C114D104E104F104F1F00E94CD03DC0134
:10081000CB0188199909AA09BB09883E9340A10513
:10082000B10570F321E0C21AD108E108F10888EEA1
:10083000880E83E0981EA11CB11CC114D104E104F0
:10084000F10419F7DDCFFF90EF90DF90CF90BF90CC
:10085000AF909F908F9008952FB7F8946091CC023D
:100860007091CD028091CE029091CF022FBF08955A
:100870001F920F920FB60F9211242F933F938F93D5
:100880009F93AF93BF938091CC029091CD02A091A2
:10089000CE02B091CF023091CB0223E0230F2D374F
:1008A00020F40196A11DB11D05C026E8230F029674
:1008B000A11DB11D2093CB028093CC029093CD0259
:1008C000A093CE02B093CF028091D0029091D1023A
:1008D000A091D202B091D3020196A11DB11D8093C7
:1008E000D0029093D102A093D202B093D302BF91D1
:1008F000AF919F918F913F912F910F900FBE0F90CD
:100900001F9018951F920F920FB60F9211242F93DC
:100910003F934F935F936F937F938F939F93AF9387
:10092000BF93EF93FF93E091DA02F091DB023097EF
:1009300009F451C0968DA685B785858591FF04C0C1
:100940009C91892329F447C09C91892309F043C0D5
:10095000A389B4899C918589809589238C93868904
:1009600097890197F1F7608D718DA685B7855585BB
:1009700038E020E0CB010197F1F7822F90E09595C8
:100980008795282F4C91452309F02068315091F725
:10099000868D81FD20958091D90290E001968F731C
:1009A00099273091D802381749F0A091D902B0E0C8
:1009B000A557BD4F2C938093D90203C0868D8160CB
:1009C000868F828D938D0197F1F7A389B4899C91CD
:1009D0008589892B8C93FF91EF91BF91AF919F9166
:1009E0008F917F916F915F914F913F912F910F90D8
:1009F0000FBE0F901F901895E091DA02F091DB0284
:100A0000E817F90769F4A389B4899C9185898095D1
:100A100089238C931092DB021092DA0281E0089510
:100A200080E00895CF93FC01C48121E02093FE0172
:100A3000C0938A021092E0021092DF028385682B35
:100A400086ED93E00E94DA088091DF02813208F09F
:100A500046C09091DE029111FCCF92E09093DE02AD
:100A600091E09093DD029FEF9093890210928802AB
:100A700080938702AFEFB1E027E632E0F9019E2FC5
:100A8000921B981718F49D919193F9CF10926602DA
:100A900080916602CC0FC82BC09366028091DC0265
:100AA000813061F41092DC02809166028093BB0079
:100AB0008091BC0083FDF8CF85EC01C085EE80936A
:100AC000BC008091DE028230E1F3809189028F3F89
:100AD00031F080918902803211F080918902109268
:100AE000E0021092DF021092FE01CF9108950F9361
:100AF0001F93CF938C01C62F0E9412056C2F646048
:100B0000C8010E9412056C2F6B7FC8010E9412055C
:100B100083EC90E00197F1F7CF911F910F91089529
:100B20000F931F93CF938C01C62F607F61600E944B
:100B3000770580E1C89FB00111246160C8010E945F
:100B4000770581E090E0CF911F910F9108951F925A
:100B50000F920FB60F9211242F933F934F935F93F1
:100B60006F937F938F939F93AF93BF93EF93FF9375
:100B70008091B900887F803609F49CC068F588327E
:100B800009F45BC090F4803109F454C038F4882330
:100B900009F4F6C0883009F44DC0F6C0883109F474
:100BA0004CC0803209F45DC0EFC0803409F468C0E5
:100BB00048F4803309F455C0883309F0E5C08093C8
:100BC0008902D8C0803509F44FC0883509F45DC06A
:100BD000883409F0D9C0D6C0883909F4C7C0A8F450
:100BE000883709F467C038F4883609F463C0803761
:100BF00009F460C0C9C0883809F4B8C0803909F464
:100C00005FC0803809F0C0C05BC0803B09F486C07B
:100C100038F4803A09F466C0883A09F47FC0B4C059
:100C2000803C09F4A7C0883C09F4A4C0883B09F4BF
:100C30008AC0AAC08091660210C0909188028091FB
:100C40008702981770F5E091880281E08E0F8093FB
:100C50008802F0E0E959FD4F80818093BB0085EC6C
:100C600086C0809389028EC0E091880281E08E0F59
:100C7000809388028091BB00F0E0E959FD4F8083AA
:100C800090918802809187026EC0E091880281E095
:100C90008E0F809388028091BB00F0E0E959FD4FF0
:100CA00080838091DD0281116DC081E08093DC0240
:100CB00084EA61C083E08093DE0210926502CFCFA8
:100CC00080916502803208F051C0E091650281E0B8
:100CD0008E0F809365028091BB00F0E0EB5BFD4FCF
:100CE0008083BDCF85EC8093BC001092DE028091A2
:100CF0006502803230F4E0916502F0E0EB5BFD4F7D
:100D000010826091650270E0E0914302F09144022C
:100D100085E492E009951092650236C084E08093E4
:100D2000DE021092420210924102E0913F02F091E5
:100D30004002099580914102811105C081E08093B4
:100D4000410210921F02E091420281E08E0F8093D7
:100D50004202F0E0E15EFD4F80818093BB00909104
:100D6000420280914102981708F479CF85E8809378
:100D7000BC000AC085EC8093BC001092DE0204C067
:100D8000109289020E949B02FF91EF91BF91AF9157
:100D90009F918F917F916F915F914F913F912F9193
:100DA0000F900FBE0F901F90189540914102262F73
:100DB00030E0240F311D21323105DCF42091DE02B8
:100DC0002430C9F4FC0180E090E0861758F430919B
:100DD00041022191DC01A15EBD4FA30FB11D2C93F7
:100DE0000196F3CF80914102680F6093410280E049
:100DF000089581E0089582E00895CF93DF934770CE
:100E0000552766277727FA013197EC01A881B98128
:100E1000E730F10520F4EC5CFF4F0C94AD1614960E
:100E2000ED91FC91159761E029C01496ED91FC912C
:100E3000159765E023C01496ED91FC91159764E039
:100E40001DC01496ED91FC91159766E017C014969D
:100E5000ED91FC91159762E011C01496ED91FC9113
:100E600015976AE00BC01496ED91FC91159768E018
:100E700005C01496ED91FC91159769E0DF91CF9133
:100E80000994CF93DF93EC01CB01BA0126E030E067
:100E900040E050E00E9427196230710581059105FC
:100EA00059F18CF46115710581059105F1F06130FE
:100EB000710581059105C1F5E881F9810480F5810D
:100EC000E02D65E02DC0643071058105910511F1BB
:100ED000D4F0653071058105910531F5E881F9811E
:100EE0000480F581E02D66E01BC0E881F981048073
:100EF000F581E02D64E014C0E881F9810480F5817A
:100F0000E02D61E00DC0E881F9810480F581E02DDC
:100F100063E006C0E881F9810480F581E02D62E09C
:100F2000CE01DF91CF910994DF91CF910895437065
:100F3000552766277727DC01ED91FC910480F58128
:100F4000E02D423051056105710571F043305105C6
:100F50006105710559F0413051056105710511F0C8
:100F600065E005C066E003C06AE001C069E009947D
:100F7000CF93DF93EC01CB01BA0123E030E040E0F6
:100F800050E00E942719613071058105910581F0BB
:100F9000623071058105910591F0672B682B692BF3
:100FA000C1F4E881F9810480F581E02D64E00DC091
:100FB000E881F9810480F581E02D61E006C0E881D7
:100FC000F9810480F581E02D62E0CE01DF91CF91BF
:100FD0000994DF91CF9108954370552766277727AD
:100FE000DC01ED91FC910480F581E02D423051054A
:100FF0006105710571F0433051056105710559F0C6
:10100000413051056105710511F062E005C063E0F2
:1010100003C061E001C060E009940F931F93CF9378
:10102000DF93EC01E881F9810480F581E02D8C01EA
:101030000D5B1F4FD8018C91811102C060E001C08F
:1010400062E0CE010995E881F9810480F581E02D07
:10105000D8018C91811102C061E001C063E0CE0132
:101060000995EBA5FCA5E230F10538F0EE0FFF1F66
:10107000EE0FFF1F35973197F1F7E881F981048072
:10108000F581E02DD8018C91811102C060E001C092
:1010900062E0CE01DF91CF911F910F910994CF9320
:1010A000DF93EC0120E030E0A9016B897C898D8918
:1010B0009E890E949A1818161CF4EFA5F8A902C080
:1010C000E9A9FAA9DF91CF9109940F931F93DC014D
:1010D0001296EC910E2F10E009301105C0F5F801C1
:1010E000E55CFF4F0C94AD16DC01ED91FC910084A2
:1010F000F185E02D29C0DC01ED91FC910284F3859E
:10110000E02D22C0DC01ED91FC910484F585E02DF9
:101110001BC0DC01ED91FC910684F785E02D14C025
:10112000DC01ED91FC910088F189E02D0DC0DC011E
:10113000ED91FC910288F389E02D06C0DC01ED9170
:10114000FC910488F589E02D1F910F9109941F915E
:101150000F910895CF92DF92EF92FF920F931F931A
:10116000CF93DF937C01262F972F8A018091FE0178
:10117000882391F0C62FD72F6E01C40ED51ECC1533
:10118000DD0571F06991D701ED91FC910190F0813D
:10119000E02DC7010995F3CF642F822F0E94D50659
:1011A000C801DF91CF911F910F91FF90EF90DF90D9
:1011B000CF900895CF93DF931F92CDB7DEB76983A9
:1011C0002091FE012223D1F02091DF02203240F055
:1011D00021E030E0FC013383228380E090E015C001
:1011E0008091E002E82FF0E0E150FE4F998190837A
:1011F0008F5F8093E0028093DF0205C061E0CE0143
:1012000001960E94D50681E090E00F90DF91CF918A
:101210000895CF92DF92EF92FF920F931F93CF9397
:10122000DF93EC014F85588969897A898B859C8584
:10123000AD85BE85481759076A077B0711F480E022
:1012400050C08E010D5B1F4F84179507A607B70787
:1012500024F481E0F801808302C0F80110828BA1A0
:101260009CA1ADA1BEA1892B8A2B8B2B41F30E949F
:10127000CD036B017C018FA198A5A9A5BAA5B701E3
:10128000A601481B590B6A0B7B0B8BA19CA1ADA13E
:10129000BEA1481759076A077B0788F2F801208129
:1012A0008B859C85AD85BE85222321F00196A11DED
:1012B000B11D03C00197A109B1098B879C87AD8738
:1012C000BE87E881F9814B855C856D857E850680CA
:1012D000F781E02DCE010995CFA2D8A6E9A6FAA6FE
:1012E00081E0DF91CF911F910F91FF90EF90DF9000
:1012F000CF900895CF93DF93FC012281222359F1EF
:10130000EC0161E083810E94910361E08C810E9485
:1013100091038A81843011F0883039F461E08D8145
:101320000E94910361E08E8106C0833011F0863007
:1013300021F461E08D810E9491038EA58F3F59F0C9
:1013400061E00E9491036DA581E068278EA5DF9181
:10135000CF910C946103DF91CF910895CF93DF93E8
:10136000FC0122812223A9F0EC010190F081E02D03
:101370000480F581E02D60E009958EA58F3F49F04E
:1013800061E00E9491036DA58EA5DF91CF910C9431
:101390006103DF91CF910895CF92DF92EF92FF9298
:1013A0000F931F93CF93DF93FC012281243041F0F0
:1013B000283031F0233031F0263021F012E003C024
:1013C00014E001C013E0EC012796E12CF12CC62EAD
:1013D000D12C01E0C6010E2C02C0959587950A9488
:1013E000E2F7688180FD6027FE01349780810E94CA
:1013F0006103FFEFEF1AFF0A2196E11658F3DF9120
:10140000CF911F910F91FF90EF90DF90CF900895B3
:101410004F925F926F927F92AF92BF92CF92DF9284
:10142000EF92FF920F931F93CF93DF93EC015A013A
:101430008B012B893C894D895E89B501C8010E94C9
:101440003B17882309F451C0CF88D88CE98CFA8CDB
:101450002601370177FA709477F87094A30192010E
:10146000B501C8010E943B1787FD0BC0A70196017B
:10147000B501C8010E949A1818162CF06501780170
:1014800002C07301620120E030E0A901C701B6018A
:101490000E943B17811105C01BA21CA21DA21EA207
:1014A00020C0A701960160E074E284E799E40E94FD
:1014B00040179F770E94B9176BA37CA38DA39EA3AF
:1014C0005E0183E4A80EB11C11E020E030E0A90128
:1014D000C701B6010E949A1818160CF010E0F50129
:1014E0001083CB8ADC8AED8AFE8ADF91CF911F912F
:1014F0000F91FF90EF90DF90CF90BF90AF907F90D3
:101500006F905F904F9008952F923F924F925F920D
:101510006F927F928F929F92AF92BF92CF92DF9203
:10152000EF92FF920F931F93CF93DF9300D000D0E1
:10153000CDB7DEB71C01FC0187849088A188B288F2
:1015400083859485A585B685881A990AAA0ABB0A57
:1015500063897489858996899B01AC010E949F18D3
:101560006B017C01F101638D748D858D968D9B01DE
:10157000AC010E94CF169B01AC01C701B6010E94CD
:1015800040170E94B21781149104A104B104A1F480
:1015900062307105810591050CF07CC0F10113A248
:1015A00014A215A216A2138A148A158A168A13AADF
:1015B00014AA15AA16AA03C1F10103A914A925A901
:1015C00036A9ED5BFF4F181419041A041B04FCF430
:1015D00010161106120613064CF4681579058A05D3
:1015E0009B054CF52081211155C025C00115110521
:1015F0002105310509F44EC0681579058A059B055A
:101600000CF048C08081882309F444C037C010160C
:10161000110612061306F4F4002711279801081981
:1016200019092A093B0960177107820793071CF4FF
:101630002081222379F19B01AC0188279927DC01C5
:10164000821B930BA40BB50BF10183AB94ABA5AB41
:10165000B6AB20C00115110521053105D9F0CC2408
:10166000DD247601C818D908EA08FB086C157D0549
:101670008E059F057CF4808181110CC030952095EA
:10168000109501951F4F2F4F3F4FF10103AB14AB46
:1016900025AB36ABF101C3A8D4A8E5A8F6A8810113
:1016A0000D5B1F4FC114D104E104F10491F487A92B
:1016B00090ADA1ADB2AD83AF94AFA5AFB6AF81E0B1
:1016C000181419041A041B040CF080E0F80180833C
:1016D00040C0F10183AC94ACA5ACB6ACA5019401BB
:1016E000C501B4010E94CF162B013C01C701B60110
:1016F0000E94EA1720E030E040E850E40E949F1882
:1017000020E030E040E85FE30E94CF169B01AC018F
:10171000C301B2010E9440179B01AC01C501B40195
:101720000E94CE164B015C01F101FF964080518072
:10173000628073809201A3010E949A18181614F017
:1017400042015301A401B501F10143AF54AF65AFAC
:1017500076AFFFEFCF1ADF0AEF0AFF0AF101C3AA43
:10176000D4AAE5AAF6AA23AD34AD45AD56ADCA015B
:10177000B90129833A834B835C830E94B917F10135
:1017800063A374A385A396A329813A814B815C81CD
:1017900060E074E284E799E40E944017F101638BF2
:1017A000748B858B968BF8012081211108C0DC0198
:1017B000CB01B058F101838B948BA58BB68B0F9026
:1017C0000F900F900F90DF91CF911F910F91FF908D
:1017D000EF90DF90CF90BF90AF909F908F907F90D1
:1017E0006F905F904F903F902F9008950F931F93AD
:1017F000FC010385148525853685400F511F621F26
:10180000731F078510892189328904171507260758
:10181000370741F04787508B618B728B1F910F9177
:101820000C94840A1F910F91089586E294E00E941F
:10183000AE0982EE93E00C94AE098091350490914C
:101840003604A0913704B09138044091310450918E
:1018500032046091330470913404841B950BA60B01
:10186000B70B9093D7028093D6028091F1039091A9
:10187000F203A091F303B091F4034091ED03509172
:10188000EE036091EF037091F003841B950BA60BA0
:10189000B70B9093D5028093D40286E294E00E9425
:1018A000090982EE93E00E9409098091D602909185
:1018B000D702892B39F481E02091D4023091D502EE
:1018C000232B09F080E00895CF93DF932091270325
:1018D0003091280380912C0390912D03281739070C
:1018E0000CF00EC10E94150C0E94290F0E94380FA7
:1018F00060912703709128036F5F7F4F8AE694E021
:101900000E940E0F61ED71E08AE694E00E94CB0226
:1019100060912C0370912D038AE694E00E940E0FD3
:1019200067ED71E08AE694E00E94CB02E091270324
:10193000F0912803EE0FFF1FED51FD4F60816150C4
:101940008AE694E00E94900560E273E080E090E017
:101950000E94F2030E94310F86E294E00E947A090D
:1019600082EE93E00E947A09E0912703F091280328
:10197000EE0FFF1FED51FD4F808191818330910566
:1019800009F46FC094F58130910509F440C00297C5
:1019900009F0ABC087EF90E00E94FE0E81E08093DB
:1019A0002B038091290390912A0321E9289FE001CC
:1019B000299FD00D1124AE010D2E000C660B770B64
:1019C00086E294E00E94F60B40E050E06AE774E49F
:1019D00086E294E00E94080A442755274C1B5D0BC1
:1019E000052E000C660B770B57C08430910509F467
:1019F00060C0059709F079C08EED90E00E94FE0E60
:101A000068EB7BE080E090E00E94F2036EC084E02F
:101A100091E00E94FE0E81E080932B0380912903C8
:101A200090912A0321E9289FE001299FD00D1124DC
:101A3000442755274C1B5D0B052E000C660B770BBE
:101A400086E294E00E94F60B40E050E06AE774E41E
:101A500086E294E00E94080AAE01DD0F660B770B68
:101A60001BC08EEE90E00E94FE0E81E080932B035F
:101A700042EE54E060E070E086E294E00E94F60BF3
:101A800040E050E06AE774E486E294E00E94080ACD
:101A900042EE54E060E070E082EE93E00E94F60BCC
:101AA00040E050E06AE774E482EE93E00E94080AA6
:101AB0001CC084EE90E00E94FE0E81E080932B0318
:101AC0004EE15BEF6FEF7FEF86E294E00E94F60B52
:101AD00040E050E06AE774E486E294E00E94080A7D
:101AE0004EE15BEF6FEF7FEFD7CF809127039091AF
:101AF00028030196909328038093270381E001C077
:101B000080E0DF91CF910895EF92FF920F931F93A2
:101B1000CF93DF930E94290F03EE12E0C0E0D0E0E4
:101B200020E1E22EF12C80912C0390912D03C81717
:101B3000D9071CF5CE01B7010E94991680932503A1
:101B400090932603BE01D7FF02C0615F7F4F94E0F0
:101B5000759567959A95E1F7609323037093240335
:101B60000E94E80FF80160810E5F1F4F61508AE606
:101B700094E00E9490052196D6CFDF91CF911F91DE
:101B80000F91FF90EF9008950E94380F0E94290F47
:101B900060912801709129018AE694E00E940E0F5D
:101BA0006BED71E08AE694E00E94CB028EEC90E04F
:101BB0000E94DD0E609128017091290189E393E074
:101BC0000E940E0F8AEC90E00C94FE0ECF92DF92F2
:101BD000EF92FF920F931F93CF93DF936C017A01E3
:101BE0008B01C0E0D0E0CE15DF0589F0D8016D9102
:101BF0008D01D601ED91FC910190F081E02DC6019F
:101C00000995892B11F47E0102C02196ECCFC70102
:101C1000DF91CF911F910F91FF90EF90DF90CF90C8
:101C200008950E940C194F925F926F927F92EF92EB
:101C3000FF920F931F93CF93DF93CDB7DEB7A1979A
:101C40000FB6F894DEBF0FBECDBF7C01FA01CB0109
:101C500019A2223008F42AE08E010F5D1F4F422E98
:101C6000512C612C712CBF01A30192010E944619D5
:101C7000F901CA01015011096A3014F4605D01C014
:101C8000695CD8016C93232B242B252B61F7B801B9
:101C9000C7010E94CB02A1960FB6F894DEBF0FBE1B
:101CA000CDBFDF91CF911F910F91FF90EF907F906B
:101CB0006F905F904F900895CF92DF92EF92FF92D6
:101CC0000F931F93CF93DF93EC016A017B01E881AF
:101CD000F9810190F081E02D6DE209958C01442796
:101CE0005527BA014C195D096E097F092AE0CE011A
:101CF0000E94130E800F911FDF91CF911F910F91C2
:101D0000FF90EF90DF90CF900895CF92DF92EF9207
:101D1000FF92CF93DF93EC01CB8CDC8CED8CFE8CAF
:101D200020E030E040E85FE3C701B6010E943B17C6
:101D3000882349F16BA97CA98DA99EA90E94EA1765
:101D4000A70196010E949F180E94B2176BAB7CAB53
:101D50008DAB9EAB86E896E6A9E6B9E48FAB98AF6B
:101D6000A9AFBAAF80E090E0A0E8BFE38B8F9C8F73
:101D7000AD8FBE8FCE01DF91CF91FF90EF90DF90BE
:101D8000CF900C94840ADF91CF91FF90EF90DF9079
:101D9000CF90089580E480937C0080917A008064E5
:101DA00080937A0080917A0086FDFCCF8091780044
:101DB0002091790090E0922B08950F931F93CF9379
:101DC000DF938C01C0E0D0E0F801EC0FFD1F6491BF
:101DD000662371F0E0913903F0913A030190F081AC
:101DE000E02D89E393E00995892B11F02196ECCF42
:101DF000CE01DF91CF911F910F910895CF93DF9383
:101E00000E94DD0EEC016BEF71E089E393E00E942C
:101E1000CB028C0F9D1FDF91CF910895AB01770FFF
:101E2000660B770B77FD0C945C0E2AE00C94130E76
:101E3000CF93C82F682F607F8AE694E00E947705D1
:101E400080E1C89FB00111248AE694E0CF910C9400
:101E5000770581E00E94180F8BE39FE10197F1F76E
:101E600008951092750460E08AE694E00C941205DF
:101E700088E08093750460E08AE694E00C94120593
:101E8000CF93DF93AC01990F660B770B77FF05C0FB
:101E900089E393E00E945C0E05C02AE089E393E0A9
:101EA0000E94130EEC016BEF71E089E393E00E9456
:101EB000CB028C0F9D1FDF91CF910895CF92DF92BF
:101EC000EF92FF92CF93DF93EC0120E030E04AEFF6
:101ED00054E46F89788D898D9A8D0E943B178823F1
:101EE00009F442C080E090E0AAEFB4E48F8B988FB1
:101EF000A98FBA8F80E090E0AAEFB3E4FE01FF96CD
:101F000080839183A283B3838BA99CA9ADA9BEA929
:101F1000181619061A061B063CF56B897C898D89F3
:101F20009E899B01AC010E949F186B017C016B8D07
:101F30007C8D8D8D9E8D9B01AC010E94CF169B01E7
:101F4000AC01C701B6010E9440170E94B2176BABEB
:101F50007CAB8DAB9EABCE01DF91CF91FF90EF902C
:101F6000DF90CF900C94840ADF91CF91FF90EF9097
:101F7000DF90CF900895EF92FF920F931F93CF932E
:101F8000DF9300D0CDB7DEB7877028E0829FC00115
:101F90001124806469837A830E94180F6981E62E78
:101FA0007A81F72E8701085F1F4FF70161917F014A
:101FB0008AE694E00E949005E016F106B1F70F90D2
:101FC0000F90DF91CF911F910F91FF90EF900895A7
:101FD000CF93DF93CDB7DEB728970FB6F894DEBF67
:101FE0000FBECDBF98E0E7E7F1E0DE01119601906A
:101FF0000D929A95E1F790917204961710F46FEF95
:10200000690FFE013196E60FF11DE60FF11D90817B
:10201000890F806828960FB6F894DEBF0FBECDBF3B
:10202000DF91CF910C94180F85EC91E09093770499
:102030008093760486E794E00C94FC04CF93DF93BE
:102040001F92CDB7DEB7789484B5826084BD84B525
:10205000816084BD85B5826085BD85B5816085BDA3
:1020600080916E00816080936E001092810080915B
:1020700081008260809381008091810081608093E3
:102080008100809180008160809380008091B10008
:1020900084608093B1008091B00081608093B00033
:1020A00080917A00846080937A0080917A008260C7
:1020B00080937A0080917A00816080937A00809189
:1020C0007A00806880937A001092C100E091490301
:1020D000F0914A0382E08083E0914503F09146034A
:1020E0001082E0914703F09148038FEC80831092B7
:1020F0005103E0914D03F0914E0386E08083E0911F
:102100004B03F0914C03808180618083E0914B030D
:10211000F0914C03808188608083E0914B03F091C3
:102120004C03808180688083E0914B03F0914C03E5
:1021300080818F7D808360E083E00E94910360E076
:1021400082E00E94910360E08DE00E94910383E0B1
:102150000E943803909338038093370310929104C0
:102160001092900410928F0410928E0410928D049D
:1021700010928C048DE991E09093930480939204E3
:1021800090918204963108F057C02DEB30E03093E7
:102190008D0420938C042BE931E030938F0420933D
:1021A0008E042CE231E0309391042093900420912E
:1021B0006800983050F031E09E3008F430E081E063
:1021C00001C0880F3A95EAF701C084E0822B809322
:1021D0006800983038F09E3040F0963148F020E0AA
:1021E00030E008C02DE630E005C02BE630E002C04C
:1021F0002CE630E030938A0420938904983030F440
:1022000081E001C0880F9A95EAF70EC0292F30E0CF
:102210009E3018F42850310902C02E50310981E057
:1022200001C0880F2A95EAF780938B04809192046D
:10223000909193040197F1F780919004909191040B
:10224000892B21F18091DA029091DB0224E086371C
:102250009207E1F0009711F00E94FC048091940431
:102260008E7F809394041092D9021092D80286E750
:1022700094E09093DB028093DA02E0918904F0917C
:102280008A04908180918B04892B80831092E202D2
:102290001092E1021092E0021092DF021092DE0230
:1022A00081E08093DD021092DC0261E082E10E9415
:1022B000610361E083E10E9461038091B9008E7F38
:1022C0008093B9008091B9008D7F8093B90088E434
:1022D0008093B80085E48093BC0010926F048091D5
:1022E0007404823018F098E090936F048093720425
:1022F00062E370E080E090E00E94F2036091750478
:102300008AE694E00E94120568EE73E080E090E0B7
:102310000E94F20360E38AE694E00E9477050BE4F2
:1023200016E4C8010197F1F760E38AE694E00E94A1
:102330007705C8010197F1F760E38AE694E00E940F
:10234000770583E592E00197F1F760E28AE694E091
:102350000E94770580916F0480620E94180F84E0CC
:10236000809370048CE00E94180F0E94290F82E075
:102370008093710486E00E94180F82E00E94180F7B
:102380008BE39FE10197F1F760E271E080E00E944A
:10239000BB0F68E171E081E00E94BB0F60E171E07A
:1023A00083E00E94BB0F68E071E082E00E94BB0FF7
:1023B00060E071E084E00E94BB0F0E94310F0E9438
:1023C000290F86E294E00E945E0F41E050E060E059
:1023D00070E086E294E00E94F60B40E050E06AE78D
:1023E00074E486E294E00E94080A82EE93E00E9480
:1023F0005E0F4FEF5FEFBA0182EE93E00E94F60BA3
:1024000040E050E06AE774E482EE93E00E94080A3C
:1024100080E191E00E94FE0E80E090E00E941119A0
:1024200090E090932A038093290305978E9730F0CC
:1024300084E190E090932A038093290380912903FB
:1024400090912A0390932901809328010E94400FC4
:102450000E942C0470933603609335030E94C40DD0
:10246000A5E06A2E712CB2E3CB2ED12C55245394C7
:102470001FE6812E12E0912EA12CB12C00E1E02E5E
:10248000F12C83E00E9438038C01809137039091F6
:10249000380308171907A1F182E00E943803209140
:1024A0002801309129018017910751F02F5F3F4F8C
:1024B0002333310554F0D0922901C09228010EC077
:1024C00021503109253031052CF03093290120931A
:1024D000280104C070922901609228010E942C04F6
:1024E00070933603609335036FED71E089E393E0F9
:1024F0000E94CB0280912801909129010E94400FF7
:10250000109338030093370380912C0390912D038F
:10251000892BD1F480912B03811116C020912903BE
:1025200030912A03809128019091290121153105CC
:1025300019F08217930741F090932A03809329039F
:102540000E94C40D509234030E94CA0EDC01A059AF
:10255000B14024E130E00E94B31662397D4F8F4FC5
:102560009F4FE4F00E94CA0EDC01A059B14024E163
:1025700030E00E94B3166B317343810591058CF4F2
:102580000E94CA0EDC01A059B14024E130E00E9453
:10259000B316A50194010E94271905C020E030E080
:1025A00002C024E130E0225031092331310540F4EA
:1025B000F901E05DFE4F0081002E000C110B02C0FE
:1025C00000E010E020903203309033030215130531
:1025D000A1F00E942C0420912E0330912F034091F2
:1025E0003003509131032C593F4F4F4F5F4F261707
:1025F00037074807590708F481C1012B99F00E9459
:102600002C0400912E0310912F0320913003309160
:1026100031030C501E4F2F4F3F4F06171707280747
:10262000390718F000E010E011C00E942C046093FC
:102630002E0370932F038093300390933103810115
:10264000045F1F4F1093330300933203000F111FD9
:10265000F801EB5BFE4F2080318086E794E00E941A
:102660006202892B31F186E794E00E947A02082EFB
:10267000000C990BAA0BBB0BFC01E456F109E231EB
:10268000F105B8F4EC5BFF4F0C94AD16E2E02E2E92
:10269000312C11C074E0272E312C0DC065E0262EA0
:1026A000312C09C0212C312C06C056E0252E312CAE
:1026B00002C037FCDEC0C1010E94400F86E0281630
:1026C0003104C4F421E022163104CCF5232809F0AA
:1026D000D0C050922B0310922803109227030E941F
:1026E000290F10922603109225030E94310F0E9499
:1026F000640CBFC086E02816310409F474C027E0DA
:102700002216310409F0B5C08CE491E00E94FE0E5F
:102710000E94380F10922D0310922C030E94290F53
:1027200060912303809125030E94E80F10922603F5
:1027300010922503109224031092230398C08091D5
:102740002C0390912D03892BA1F40E94290F8091D5
:102750003403882371F0609128018FE191E069834F
:102760000E94FE0E698180E090E00E94191910928B
:10277000340300912C0310912D03C801B7010E946E
:1027800099168093250390932603B80117FF02C082
:10279000615F7F4F44E0759567954A95E1F76093D7
:1027A0002303709324030E94E80F0E94380F003225
:1027B00011052CF08CE591E00E94FE0E5AC06FEFDF
:1027C000620D8AE694E00E949005F801EE0FFF1F6B
:1027D000ED51FD4F318220820F5F1F4F10932D036B
:1027E00000932C0346C00E941D0C811106C010925C
:1027F0002B030E94290F0E94840D86E591E00E9420
:10280000FE0E0E94380F80912C0390912D030197AA
:1028100097FD05C090932D0380932C0304C0109264
:102820002D0310922C0330912C0320912D03832F24
:10283000922FB7010E949916809325039093260347
:10284000632F722F77FF02C0615F7F4F24E0759581
:1028500067952A95E1F760932303709324030E9400
:10286000E80F69ED71E08AE694E00E94CB020E94D5
:10287000150C80912B03882339F10E941D0C8823AD
:10288000D1F181E491E00E94FE0E0E94640C81115E
:1028900032C08EE291E00E94FE0E10922B030E9445
:1028A000150C0E94290F0E94380F65EF71E08AE62F
:1028B00094E00E94CB0260E476E080E090E00E9429
:1028C000F2030E94840D17C080912C0390912D0378
:1028D000892B89F40E942C04209135033091360312
:1028E0002854344F8901330F220B330B0617170777
:1028F00028073907B0F00E94C201C3CD0E942C0402
:1029000060932E0370932F038093300390933103D1
:1029100099CE22242394312CCECE83E0282E312C44
:10292000CACE0E94310FE7CFAF92BF92CF92DF9213
:10293000EF92FF920F931F93CF93DF9310923C037C
:1029400010923B0388EE93E0A0E0B0E080933D035B
:1029500090933E03A0933F03B093400323E831E0FC
:1029600030933A032093390325EC30E0309346034B
:102970002093450324EC30E0309348032093470331
:1029800020EC30E030934A032093490321EC30E0FF
:1029900030934C0320934B0322EC30E030934E03F2
:1029A00020934D0326EC30E03093500320934F03E7
:1029B0001092520310925303109254031092550335
:1029C0001092D9031092D8038093DA039093DB031B
:1029D000A093DC03B093DD0323E931E03093D70308
:1029E0002093D603109279041092780480937A048D
:1029F00090937B04A0937C04B0937D0485EC91E0DC
:102A0000909377048093760410928D0410928C0436
:102A100010928F0410928E041092910410929004E0
:102A20001092930410929204609194046E7F6D7FD3
:102A3000609394046695617081E068278DE00E9440
:102A4000610361E08DE00E949103E1EAF1E0E4912D
:102A5000E0938604EDE8F1E0E491F0E0EE0FFF1F73
:102A6000E459FE4F85919491909388048093870454
:102A700060E08CE00E9491038091940481FD04C089
:102A800061E08CE00E9461038CE080938204E0EAC4
:102A9000F1E0E491E0938304ECE8F1E0E491F0E00C
:102AA000EE0FFF1FEA58FE4F859194919093850495
:102AB0008093840410926D0410926C048DEB91E06D
:102AC00090936B0480936A0487E280936E0484E1A0
:102AD0008093730484E0809374041092750493EAE5
:102AE000A92E91E0B92EB0922704A0922604C8E046
:102AF000C0932804109231041092320410923304CF
:102B00001092340410923504109236041092370457
:102B1000109238041092390410923A0410923B0437
:102B200010923C04C12CD12C20E8E22E2FE3F22E8F
:102B3000C0923D04D0923E04E0923F04F0924004E3
:102B400010924104109242041092430410924404E3
:102B5000C0924504D0924604E0924704F0924804A3
:102B60001092490410924A0410924B0410924C04A3
:102B700001E010E01093520400935104DFEFD09372
:102B8000540410924D0410924E0410924F0410926F
:102B900050048093290486E080932A0485E0809382
:102BA0002B0487E080932C041092590410925A044D
:102BB00010925B0410925C0410925D0410925E040B
:102BC00010925F04109260041092610410926204EB
:102BD0001092630410926404C0926504D09266045B
:102BE000E0926704F09268041092690410922D0438
:102BF00010922E0410922F041092300486E294E07A
:102C00000E947A0986E294E00E94850EB092E30366
:102C1000A092E203C093E4031092ED031092EE033E
:102C20001092EF031092F0031092F1031092F2034E
:102C30001092F3031092F4031092F5031092F6032E
:102C40001092F7031092F803C092F903D092FA039E
:102C5000E092FB03F092FC031092FD031092FE033E
:102C60001092FF0310920004C0920104D09202045B
:102C7000E0920304F09204041092050410920604FA
:102C8000109207041092080410930E0400930D0490
:102C9000D09310041092090410920A0410920B04AD
:102CA00010920C04C093E5038AE08093E60389E068
:102CB0008093E7038BE08093E80310921504109251
:102CC000160410921704109218041092190410920E
:102CD0001A0410921B0410921C0410921D041092EE
:102CE0001E0410921F0410922004C0922104D0925E
:102CF0002204E0922304F0922404109225041092FE
:102D0000E9031092EA031092EB031092EC0382EEB7
:102D100093E00E947A0982EE93E0DF91CF911F91B8
:102D20000F91FF90EF90DF90CF90BF90AF900C94F9
:102D3000850E97FB072E16F4009407D077FD09D077
:102D40000E94BA1607FC05D03EF4909581959F4FDE
:102D50000895709561957F4F0895EE0FFF1F0590C0
:102D6000F491E02D09940E946819B7FF0895821B21
:102D7000930B0895AA1BBB1B51E107C0AA1FBB1FE1
:102D8000A617B70710F0A61BB70B881F991F5A95F7
:102D9000A9F780959095BC01CD0108955058BB27A7
:102DA000AA270E94E6160C9460180E94521838F068
:102DB0000E94591820F039F49F3F19F426F40C941E
:102DC0004F180EF4E095E7FB0C944918E92F0E9488
:102DD000711858F3BA17620773078407950720F034
:102DE00079F4A6F50C9493180EF4E0950B2EBA2FF7
:102DF000A02D0B01B90190010C01CA01A001112401
:102E0000FF27591B99F0593F50F4503E68F11A16AC
:102E1000F040A22F232F342F4427585FF3CF46953D
:102E200037952795A795F0405395C9F77EF41F165F
:102E3000BA0B620B730B840BBAF09150A1F0FF0F29
:102E4000BB1F661F771F881FC2F70EC0BA0F621F15
:102E5000731F841F48F4879577956795B795F79505
:102E60009E3F08F0B0CF9395880F08F09927EE0F9A
:102E70009795879508950E94251808F481E0089594
:102E80000E9454170C9460180E94591858F00E9420
:102E9000521840F029F45F3F29F00C944918511161
:102EA0000C9494180C944F180E94711868F399238D
:102EB000B1F3552391F3951B550BBB27AA27621736
:102EC0007307840738F09F5F5F4F220F331F441F43
:102ED000AA1FA9F335D00E2E3AF0E0E832D0915077
:102EE0005040E695001CCAF72BD0FE2F29D0660F64
:102EF000771F881FBB1F261737074807AB07B0E8A7
:102F000009F0BB0B802DBF01FF2793585F4F3AF0AC
:102F10009E3F510578F00C9449180C9494185F3F2B
:102F2000E4F3983ED4F3869577956795B795F79532
:102F30009F5FC9F7880F911D9695879597F908951A
:102F4000E1E0660F771F881FBB1F621773078407B6
:102F5000BA0720F0621B730B840BBA0BEE1F88F7C5
:102F6000E09508950E94B9176894B1110C949418D3
:102F700008950E94791888F09F5798F0B92F9927E3
:102F8000B751B0F0E1F0660F771F881F991F1AF054
:102F9000BA95C9F714C0B13091F00E949318B1E00E
:102FA00008950C949318672F782F8827B85F39F00D
:102FB000B93FCCF3869577956795B395D9F73EF4ED
:102FC00090958095709561957F4F8F4F9F4F089595
:102FD000E89409C097FB3EF49095809570956195B3
:102FE0007F4F8F4F9F4F9923A9F0F92F96E9BB2769
:102FF0009395F695879577956795B795F111F8CFE5
:10300000FAF4BB0F11F460FF1BC06F5F7F4F8F4F4F
:103010009F4F16C0882311F096E911C0772321F045
:103020009EE8872F762F05C0662371F096E8862FDD
:1030300070E060E02AF09A95660F771F881FDAF734
:10304000880F9695879597F90895990F0008550F61
:10305000AA0BE0E8FEEF16161706E807F907C0F01E
:1030600012161306E407F50798F0621B730B840B26
:10307000950B39F40A2661F0232B242B252B21F400
:1030800008950A2609F4A140A6958FEF811D811DA0
:10309000089597F99F6780E870E060E008959FEFDA
:1030A00080EC089500240A941616170618060906DF
:1030B000089500240A9412161306140605060895AE
:1030C000092E0394000C11F4882352F0BB0F40F436
:1030D000BF2B11F460FF04C06F5F7F4F8F4F9F4F76
:1030E000089557FD9058440F551F59F05F3F71F0F8
:1030F0004795880F97FB991F61F09F3F79F087955F
:103100000895121613061406551FF2CF4695F1DFE7
:1031100008C0161617061806991FF1CF8695710577
:10312000610508940895E894BB2766277727CB01AB
:1031300097F908950E94251808F48FEF08950E94CA
:10314000B2180C9460180E94521838F00E94591856
:1031500020F0952311F00C9449180C944F18112469
:103160000C9494180E94711870F3959FC1F3950FF9
:1031700050E0551F629FF001729FBB27F00DB11DFB
:10318000639FAA27F00DB11DAA1F649F6627B00D8B
:10319000A11D661F829F2227B00DA11D621F739F74
:1031A000B00DA11D621F839FA00D611D221F749F82
:1031B0003327A00D611D231F849F600D211D822FC9
:1031C000762F6A2F11249F5750409AF0F1F08823F0
:1031D0004AF0EE0FFF1FBB1F661F771F881F91501D
:1031E0005040A9F79E3F510580F00C9449180C946B
:1031F00094185F3FE4F3983ED4F3869577956795EE
:10320000B795F795E7959F5FC1F7FE2B880F911D46
:103210009695879597F9089581E090E0F8940C943D
:103220007719F999FECF92BD81BDF89A992780B59B
:103230000895262FF999FECF1FBA92BD81BD20BDFA
:103240000FB6F894FA9AF99A0FBE01960895052ED2
:1032500097FB1EF400940E943E1957FD07D00E9470
:10326000461907FC03D04EF40C943E195095409536
:10327000309521953F4F4F4F5F4F08959095809522
:10328000709561957F4F8F4F9F4F0895A1E21A2E41
:10329000AA1BBB1BFD010DC0AA1FBB1FEE1FFF1FFA
:1032A000A217B307E407F50720F0A21BB30BE40B4A
:1032B000F50B661F771F881F991F1A9469F7609591
:1032C0007095809590959B01AC01BD01CF0108954B
:1032D000A29FB001B39FC001A39F700D811D112457
:1032E000911DB29F700D811D1124911D089510E054
:1032F000C5EDD0E004C0FE010E94AD162196C63D8A
:08330000D107C9F7F894FFCFD3
:103308000000000000111F000004081F080400004E
:103318000004021F0204000000040404150E040047
:1033280000040E1504040400140001000000E80362
:103338000102030405060007080009000A00000B43
:1033480000000C2003FFFF0000FFFF0600FFFF0244
:1033580000FFFF040005000300FFFF0100FFFFFF5F
:10336800FFFFFF0700FFFFFFFFFFFFFFFFFFFFFF5C
:10337800FF0700FFFFFFFF0000400014005400009B
:103388000000005901E60D220100011401A001000E
:10339800000000DA08AA08C302B402A602A50200C7
:1033A800000000AE097A09CC0965084F080D08EC41
:1033B80007B80797074107FD06000000009005E6DB
:1033C8000D000000000E02E60D62027A02F5010D02
:1033D80002207375722000203A200020636D00459A
:1033E8006E636F64657220526F74506F736974698D
:0E33F8006F6E3A200066696E2021000D0A00FB
:00000001FF
